{
  "contractName": "ExampleStorage2",
  "abi": [
    {
      "constant": true,
      "inputs": [
        {
          "name": "a",
          "type": "string"
        },
        {
          "name": "b",
          "type": "string"
        }
      ],
      "name": "checkClash",
      "outputs": [
        {
          "name": "",
          "type": "bool"
        }
      ],
      "payable": false,
      "stateMutability": "pure",
      "type": "function"
    },
    {
      "constant": true,
      "inputs": [
        {
          "name": "a",
          "type": "string"
        },
        {
          "name": "b",
          "type": "string"
        }
      ],
      "name": "checkClashStored",
      "outputs": [
        {
          "name": "",
          "type": "bool"
        }
      ],
      "payable": false,
      "stateMutability": "view",
      "type": "function"
    },
    {
      "constant": true,
      "inputs": [
        {
          "name": "",
          "type": "uint256"
        }
      ],
      "name": "clashes",
      "outputs": [
        {
          "name": "stringOne",
          "type": "string"
        },
        {
          "name": "stringTwo",
          "type": "string"
        }
      ],
      "payable": false,
      "stateMutability": "view",
      "type": "function"
    },
    {
      "constant": true,
      "inputs": [
        {
          "name": "",
          "type": "bytes32"
        }
      ],
      "name": "clashStored",
      "outputs": [
        {
          "name": "",
          "type": "bool"
        }
      ],
      "payable": false,
      "stateMutability": "view",
      "type": "function"
    },
    {
      "constant": true,
      "inputs": [
        {
          "name": "index",
          "type": "uint256"
        }
      ],
      "name": "getClashes",
      "outputs": [
        {
          "name": "",
          "type": "string"
        },
        {
          "name": "",
          "type": "string"
        }
      ],
      "payable": false,
      "stateMutability": "view",
      "type": "function"
    },
    {
      "constant": true,
      "inputs": [],
      "name": "numClashes",
      "outputs": [
        {
          "name": "",
          "type": "uint256"
        }
      ],
      "payable": false,
      "stateMutability": "view",
      "type": "function"
    },
    {
      "constant": false,
      "inputs": [
        {
          "name": "a",
          "type": "string"
        },
        {
          "name": "b",
          "type": "string"
        }
      ],
      "name": "storeByte4Clash",
      "outputs": [],
      "payable": false,
      "stateMutability": "nonpayable",
      "type": "function"
    }
  ],
  "bytecode": "0x608060405234801561001057600080fd5b50610f0b806100206000396000f3fe608060405260043610610083576000357c0100000000000000000000000000000000000000000000000000000000900463ffffffff16806316e12184146100885780631f34d08d146101e757806324de32281461035e578063945342aa146104d5578063a7ad40eb146105f5578063c3c6254114610648578063ce01b22914610768575b600080fd5b34801561009457600080fd5b506101e5600480360360408110156100ab57600080fd5b81019080803590602001906401000000008111156100c857600080fd5b8201836020820111156100da57600080fd5b803590602001918460018302840111640100000000831117156100fc57600080fd5b91908080601f016020809104026020016040519081016040528093929190818152602001838380828437600081840152601f19601f8201169050808301925050505050505091929192908035906020019064010000000081111561015f57600080fd5b82018360208201111561017157600080fd5b8035906020019184600183028401116401000000008311171561019357600080fd5b91908080601f016020809104026020016040519081016040528093929190818152602001838380828437600081840152601f19601f820116905080830192505050505050509192919290505050610793565b005b3480156101f357600080fd5b506103446004803603604081101561020a57600080fd5b810190808035906020019064010000000081111561022757600080fd5b82018360208201111561023957600080fd5b8035906020019184600183028401116401000000008311171561025b57600080fd5b91908080601f016020809104026020016040519081016040528093929190818152602001838380828437600081840152601f19601f820116905080830192505050505050509192919290803590602001906401000000008111156102be57600080fd5b8201836020820111156102d057600080fd5b803590602001918460018302840111640100000000831117156102f257600080fd5b91908080601f016020809104026020016040519081016040528093929190818152602001838380828437600081840152601f19601f82011690508083019250505050505050919291929050505061092e565b604051808215151515815260200191505060405180910390f35b34801561036a57600080fd5b506104bb6004803603604081101561038157600080fd5b810190808035906020019064010000000081111561039e57600080fd5b8201836020820111156103b057600080fd5b803590602001918460018302840111640100000000831117156103d257600080fd5b91908080601f016020809104026020016040519081016040528093929190818152602001838380828437600081840152601f19601f8201169050808301925050505050505091929192908035906020019064010000000081111561043557600080fd5b82018360208201111561044757600080fd5b8035906020019184600183028401116401000000008311171561046957600080fd5b91908080601f016020809104026020016040519081016040528093929190818152602001838380828437600081840152601f19601f820116905080830192505050505050509192919290505050610a5f565b604051808215151515815260200191505060405180910390f35b3480156104e157600080fd5b5061050e600480360360208110156104f857600080fd5b8101908080359060200190929190505050610b52565b604051808060200180602001838103835285818151815260200191508051906020019080838360005b83811015610552578082015181840152602081019050610537565b50505050905090810190601f16801561057f5780820380516001836020036101000a031916815260200191505b50838103825284818151815260200191508051906020019080838360005b838110156105b857808201518184015260208101905061059d565b50505050905090810190601f1680156105e55780820380516001836020036101000a031916815260200191505b5094505050505060405180910390f35b34801561060157600080fd5b5061062e6004803603602081101561061857600080fd5b8101908080359060200190929190505050610ca6565b604051808215151515815260200191505060405180910390f35b34801561065457600080fd5b506106816004803603602081101561066b57600080fd5b8101908080359060200190929190505050610cc6565b604051808060200180602001838103835285818151815260200191508051906020019080838360005b838110156106c55780820151818401526020810190506106aa565b50505050905090810190601f1680156106f25780820380516001836020036101000a031916815260200191505b50838103825284818151815260200191508051906020019080838360005b8381101561072b578082015181840152602081019050610710565b50505050905090810190601f1680156107585780820380516001836020036101000a031916815260200191505b5094505050505060405180910390f35b34801561077457600080fd5b5061077d610e34565b6040518082815260200191505060405180910390f35b606482511015156107a357600080fd5b606481511015156107b357600080fd5b6107bd828261092e565b15156107c857600080fd5b6107d28282610a5f565b1515156107de57600080fd5b600180600084846040516020018083805190602001908083835b60208310151561081d57805182526020820191506020810190506020830392506107f8565b6001836020036101000a03801982511681845116808217855250505050505090500182805190602001908083835b602083101515610870578051825260208201915060208101905060208303925061084b565b6001836020036101000a0380198251168184511680821785525050505050509050019250505060405160208183030381529060405280519060200120815260200190815260200160002060006101000a81548160ff02191690831515021790555060008060006002600081548092919060010191905055815260200190815260200160002090508281600001908051906020019061090f929190610e3a565b5081816001019080519060200190610928929190610e3a565b50505050565b6000816040516020018082805190602001908083835b6020831015156109695780518252602082019150602081019050602083039250610944565b6001836020036101000a038019825116818451168082178552505050505050905001915050604051602081830303815290604052805190602001207bffffffffffffffffffffffffffffffffffffffffffffffffffffffff1916836040516020018082805190602001908083835b6020831015156109fc57805182526020820191506020810190506020830392506109d7565b6001836020036101000a038019825116818451168082178552505050505050905001915050604051602081830303815290604052805190602001207bffffffffffffffffffffffffffffffffffffffffffffffffffffffff191614905092915050565b60006001600084846040516020018083805190602001908083835b602083101515610a9f5780518252602082019150602081019050602083039250610a7a565b6001836020036101000a03801982511681845116808217855250505050505090500182805190602001908083835b602083101515610af25780518252602082019150602081019050602083039250610acd565b6001836020036101000a0380198251168184511680821785525050505050509050019250505060405160208183030381529060405280519060200120815260200190815260200160002060009054906101000a900460ff16905092915050565b6000602052806000526040600020600091509050806000018054600181600116156101000203166002900480601f016020809104026020016040519081016040528092919081815260200182805460018160011615610100020316600290048015610bfe5780601f10610bd357610100808354040283529160200191610bfe565b820191906000526020600020905b815481529060010190602001808311610be157829003601f168201915b505050505090806001018054600181600116156101000203166002900480601f016020809104026020016040519081016040528092919081815260200182805460018160011615610100020316600290048015610c9c5780601f10610c7157610100808354040283529160200191610c9c565b820191906000526020600020905b815481529060010190602001808311610c7f57829003601f168201915b5050505050905082565b60016020528060005260406000206000915054906101000a900460ff1681565b606080600080848152602001908152602001600020600001600080858152602001908152602001600020600101818054600181600116156101000203166002900480601f016020809104026020016040519081016040528092919081815260200182805460018160011615610100020316600290048015610d885780601f10610d5d57610100808354040283529160200191610d88565b820191906000526020600020905b815481529060010190602001808311610d6b57829003601f168201915b50505050509150808054600181600116156101000203166002900480601f016020809104026020016040519081016040528092919081815260200182805460018160011615610100020316600290048015610e245780601f10610df957610100808354040283529160200191610e24565b820191906000526020600020905b815481529060010190602001808311610e0757829003601f168201915b5050505050905091509150915091565b60025481565b828054600181600116156101000203166002900490600052602060002090601f016020900481019282601f10610e7b57805160ff1916838001178555610ea9565b82800160010185558215610ea9579182015b82811115610ea8578251825591602001919060010190610e8d565b5b509050610eb69190610eba565b5090565b610edc91905b80821115610ed8576000816000905550600101610ec0565b5090565b9056fea165627a7a72305820aa729499120cb2c708c6ae098fca9b887714212b7eb64d6bd45ba315e4e2654a0029",
  "source": "pragma solidity >=0.5.0;\n\n\ncontract ExampleStorage {\n\n    struct Clashes {\n        string stringOne;\n        string stringTwo;\n    }\n\n    mapping (uint256 => Clashes) public clashes;\n    mapping (bytes32 => bool) public clashStored;\n    uint256 public numClashes;\n\n    function storeByte4Clash(string memory a, string memory b)\n    public {\n        require(checkClash(a, b));\n        require(!checkClashStored(a,b));\n        clashStored[keccak256(abi.encodePacked(a, b))] = true;\n        Clashes storage newClash = clashes[numClashes++];\n        newClash.stringOne = a;\n        newClash.stringTwo = b;\n    }\n\n    function checkClashStored(string memory a, string memory b)\n    public\n    view\n    returns (bool) {\n        return clashStored[keccak256(abi.encodePacked(a,b))];\n    }\n\n    function checkClash(string memory a, string memory b)\n    public\n    pure\n    returns (bool) {\n        return bytes4(keccak256(abi.encodePacked(a))) == bytes4(keccak256(abi.encodePacked(b)));\n    }\n\n    function getClashes(uint256 index)\n    public\n    view\n    returns (string memory, string memory ){\n        return (clashes[index].stringOne, clashes[index].stringTwo);\n    }\n\n}\n\ncontract ExampleStorage2 is ExampleStorage {\n\n    function storeByte4Clash(string memory a, string memory b)\n    public {\n        require(bytes(a).length < 100);\n        require(bytes(b).length < 100);\n        require(checkClash(a, b));\n        require(!checkClashStored(a,b));\n        clashStored[keccak256(abi.encodePacked(a, b))] = true;\n        Clashes storage newClash = clashes[numClashes++];\n        newClash.stringOne = a;\n        newClash.stringTwo = b;\n    }\n}\n",
  "sourcePath": "/home/dog/code/kyle/upgradeable/proxy-based/single-contract/contracts/ExampleStorage.sol",
  "compiler": {
    "name": "solc",
    "version": "0.5.0+commit.1d4f565a.Emscripten.clang"
  },
  "schemaVersion": "3.0.1",
  "updatedAt": "2019-02-24T16:36:01.380Z",
  "devdoc": {
    "methods": {}
  },
  "userdoc": {
    "methods": {}
  }
}