{
  "contractName": "Proxy",
  "abi": [
    {
      "constant": true,
      "inputs": [],
      "name": "implementation",
      "outputs": [
        {
          "name": "",
          "type": "address"
        }
      ],
      "payable": false,
      "stateMutability": "view",
      "type": "function"
    },
    {
      "payable": true,
      "stateMutability": "payable",
      "type": "fallback"
    },
    {
      "constant": false,
      "inputs": [
        {
          "name": "_address",
          "type": "address"
        }
      ],
      "name": "upgrade",
      "outputs": [],
      "payable": false,
      "stateMutability": "nonpayable",
      "type": "function"
    }
  ],
  "bytecode": "0x608060405234801561001057600080fd5b50610211806100206000396000f3fe60806040526004361061004c576000357c0100000000000000000000000000000000000000000000000000000000900463ffffffff1680630900f010146100d55780635c60da1b14610126575b60008060009054906101000a900473ffffffffffffffffffffffffffffffffffffffff169050600073ffffffffffffffffffffffffffffffffffffffff168173ffffffffffffffffffffffffffffffffffffffff16141515156100ae57600080fd5b60405136600082376000803683855af43d806000843e81600081146100d1578184f35b8184fd5b3480156100e157600080fd5b50610124600480360360208110156100f857600080fd5b81019080803573ffffffffffffffffffffffffffffffffffffffff16906020019092919050505061017d565b005b34801561013257600080fd5b5061013b6101c0565b604051808273ffffffffffffffffffffffffffffffffffffffff1673ffffffffffffffffffffffffffffffffffffffff16815260200191505060405180910390f35b806000806101000a81548173ffffffffffffffffffffffffffffffffffffffff021916908373ffffffffffffffffffffffffffffffffffffffff16021790555050565b6000809054906101000a900473ffffffffffffffffffffffffffffffffffffffff168156fea165627a7a72305820891089150c975b7ffec9abece8755fc5e5b9c06ceee73ca36be24263f7b613fd0029",
  "source": "pragma solidity >=0.5.0;\n\n/**\n * @title Proxy\n * @dev Gives the possibility to delegate any call to a foreign implementation.\n */\n contract Proxy {\n\n     address public implementation;\n\n     // @notice upgrades to new implementation\n     function upgrade(address _address)\n     public {\n         implementation = _address;\n     }\n\n\n     // @dev Fallback function allowing to perform a delegatecall to the given implementation.\n     // @return Returns whatever implementation address returns\n     function ()\n     payable\n     external {\n         address _impl = implementation;\n         require(_impl != address(0));\n         assembly {\n             let ptr := mload(0x40)\n             calldatacopy(ptr, 0, calldatasize)\n             let result := delegatecall(gas, _impl, ptr, calldatasize, 0, 0)\n             let size := returndatasize\n             returndatacopy(ptr, 0, size)\n\n             switch result\n             case 0 { revert(ptr, size) }\n             default { return(ptr, size) }\n         }\n     }\n }\n",
  "sourcePath": "/home/dog/code/kyle/upgradeable/proxy-based/single-contract/contracts/Proxy.sol",
  "compiler": {
    "name": "solc",
    "version": "0.5.0+commit.1d4f565a.Emscripten.clang"
  },
  "schemaVersion": "3.0.1",
  "updatedAt": "2019-02-19T15:21:58.140Z",
  "devdoc": {
    "details": "Gives the possibility to delegate any call to a foreign implementation.",
    "methods": {},
    "title": "Proxy"
  },
  "userdoc": {
    "methods": {}
  }
}